:020000040800F2
:1000000000000120C5020008CB020008CF02000852
:1000100041030008450300088D03000800000000AC
:10002000000000000000000000000000D5030008F0
:10003000D903000800000000DD030008E103000808
:10004000F1030008F1030008F1030008F1030008C0
:10005000F1030008F1030008F1030008F1030008B0
:10006000F1030008F1030008F1030008F1030008A0
:10007000F1030008F1030008F1030008F103000890
:10008000F1030008F1030008F1030008000000007C
:10009000000000000000000000000000F103000864
:1000A000F1030008F1030008F1030008F103000860
:1000B000F1030008F1030008F1030008F103000850
:1000C000F1030008F1030008F1030008C113000860
:1000D000F1030008F1030008F1030008000000002C
:1000E000F1030008F1030008F1030008000000001C
:1000F000000000000000000000000000F103000804
:1001000000000000F1030008F1030008F1030008FB
:1001100000000000000000000000000000000000DF
:10012000F1030008F1030008F1030008F1030008DF
:10013000F1030008000000000000000000000000C3
:10014000000000000000000000000000F1030008B3
:10015000F1030008F1030008F1030008F1030008AF
:10016000F1030008F1030008000000000000000097
:10017000000000000000000000000000000000007F
:1001800000000000F1030008000000000000000073
:10019000F103000800B583B000F046FE384B394A41
:1001A0001360394A1360394900E02146384B9942BF
:1001B0000BD20A684B6801F10C0488689842F4D9A4
:1001C0001168196004330432F8E72E4B1A68314B7A
:1001D0009A4200D0FEE72C4B1A682F4B9A42F9D175
:1001E000274B2E4A13602E4A13602E4B05E0002049
:1001F000106004329342FAD80B462B4A934204D241
:10020000194651F8082B5B68F4E7244B1B6813B9B7
:10021000234B1B6803B1FEE701F0FCF9694601A816
:1002200000F094FD214C224BE41AA4100025AC42AE
:1002300014DC204C204BE41AA4100025AC4213DC43
:100240000099019801F0EEF905461C4C1C4BE41A8C
:10025000A410002C0EDC284600F04AFD144B53F885
:10026000253098470135E2E7134B53F8253098477E
:100270000135E3E7013C124B53F824309847E8E797
:10028000BABADECA0000002074000020F40300089F
:100290000C04000878563412325476987800002006
:1002A000180100200C0400081C0400081C040008AD
:1002B0001C0400081C0400081C0400081C0400089E
:1002C0001C04000808B5FFF765FF00BEFEE71EF03E
:1002D000040F0CBFEFF30880EFF309807146414A29
:1002E00010472DE9F04182B004468846124B5E6B00
:1002F0009F6B9D6A1B6B13F0020F03D00E4BDB6AE2
:10030000002B0CDB0D4800F033FDCDF800803B46A0
:1003100032462946204600F093FD00BEFEE74BF62C
:10032000AB6100F007FE0028ECD0034B4FF0004219
:10033000DA6202B0BDE8F08100ED00E0882100083B
:1003400000BEFEE71EF0040F0CBFEFF30880EFF3D2
:1003500009807146244A10472DE9F04182B00446D5
:100360008846084B5E6B9F6B9D6A074800F000FD56
:10037000CDF800803B4632462946204600F060FD1D
:1003800000BEFEE700ED00E0982100081EF0040F1B
:100390000CBFEFF30880EFF309807146134A104752
:1003A0002DE9F04182B004468846084B5E6B9F6B96
:1003B0009D6A074800F0DCFCCDF800803B463246E1
:1003C0002946204600F03CFD00BEFEE700ED00E0BF
:1003D000A421000800BEFEE700BEFEE700BEFEE767
:1003E00070470000E302000859030008A103000859
:0403F00000BEFEE766
:1003F400F8E103080000002078000020F8E1030879
:100404000000001000000010780000201C010020F3
:080414000000001000000010C0
:1004200010B50446074B1868074BA3FB0030800942
:1004300000F090F8002221464FF0FF3000F044F821
:10044000002010BD0C000020D34D621008B50B4BEE
:100450001A6842F400721A601A6842F480621A60E4
:100460001A6842F480721A60032000F00FF80F201F
:10047000FFF7D6FF01F01CF9002008BD003C024048
:10048000014B1868704700BF1001002010B50446EA
:10049000C31E042B0FD80A4AD36823F4E0631B045D
:1004A0001B0C240204F4E064234343F0BF6343F4D1
:1004B0000033D36010BDA421024800F04FFCEAE7EE
:1004C00000ED00E0B81F000870B505460C46164662
:1004D0000F2A25D80F2C28D81B4BDB68C3F3022327
:1004E000C3F10702042A28BF0422191D062921D9B5
:1004F000033B4FF0FF3101FA02F224EA02049C4070
:1005000001FA03F326EA03063443002D14DB240129
:10051000E4B205F1604505F5614585F8004370BD1D
:10052000BC210A4800F01AFCD4E7BD21074800F0BE
:1005300015FCD1E70023DCE705F00F052401E4B248
:10054000034B5C55EBE700BF00ED00E0B81F00086F
:1005500014ED00E00138B0F1807F0AD2064B5860FC
:10056000064AF02182F823100020986007221A60C2
:1005700070470120704700BF10E000E000ED00E090
:1005800010B50446042800D038B9042C0BD0094A11
:10059000136823F00403136010BD40F2B311064842
:1005A00000F0DCFBF1E7034A136843F00403136037
:1005B000F2E700BF10E000E0B81F000830B583B0DC
:1005C000044603680F2B29D8236813F0010F3DD090
:1005D0006368012B01D9052B25D1A34B9B6803F040
:1005E0000C03042B29D0A04B9B6803F00C03082BB1
:1005F0001ED022799D4B1A706368002B50D0FFF7F4
:100600003FFF0546984B1B6813F4003F1ED1FFF7D0
:1006100037FF401B6428F5D90320E3E1F521944816
:1006200000F09CFBD0E7FA21914800F097FBD4E75B
:100630008D4B5B6813F4800FDBD08B4B1B6813F47E
:10064000003F03D06368002B00F0C981236813F0DA
:10065000020F5DD0E368012B31D823691F2B34D8FA
:10066000814B9B6813F00C0F3AD07F4B9B6803F0D3
:100670000C03082B2FD0E368002B74D07D4B012294
:100680001A60FFF7FDFE0546774B1B6813F0020F5B
:100690005AD1FFF7F5FE401B0228F5D90320A1E14E
:1006A000FFF7EEFE0546704B1B6813F4003FCDD0FC
:1006B000FFF7E6FE401B6428F5D9032092E14FF4D2
:1006C00096716B4800F04AFBC7E740F22D1168486D
:1006D00000F044FBC4E7644B5B6813F4800FCAD19D
:1006E000614B1B6813F0020F04D0E368012B01D0AB
:1006F000012077E15C48036823F0F8032169F822C0
:1007000092FAA2F2B2FA82F201FA02F21343036001
:10071000236813F0080F50D06369012B35D8636943
:10072000002B38D0544B01221A60FFF7A9FE054672
:100730004D4B5B6F13F0020F3FD1FFF7A1FE401B43
:100740000228F5D903204DE14748036823F0F80358
:100750002169F82292FAA2F2B2FA82F201FA02F2C6
:1007600013430360D4E7434B00221A60FFF788FE6F
:1007700005463D4B1B6813F0020FC9D0FFF780FE02
:10078000401B0228F5D903202CE140F26D113848B6
:1007900000F0E4FAC3E7384B00221A60FFF770FE5E
:1007A0000546314B5B6F13F0020F06D0FFF768FE72
:1007B000401B0228F5D9032014E1236813F0040F2D
:1007C00060D0A368012B01D9052B1FD10023019311
:1007D000254B1A6C42F080521A641B6C03F0805354
:1007E0000193019B254A136843F480731360FFF75C
:1007F00047FE0546214B1B6813F4807F0CD1FFF7A1
:100800003FFE401B0228F5D90320EBE040F2971190
:10081000174800F0A3FAD9E7227A194B1A70A36897
:1008200083B1FFF72DFE05460F4B1B6F13F0020F30
:1008300028D1FFF725FE401B41F288339842F3D9B7
:100840000320CFE0FFF71CFE0546074B1B6F13F09C
:10085000020F17D0FFF714FE401B41F28833984275
:10086000F3D90320BEE000BF003802400238024046
:10087000FC1F000800004742800E47420070004005
:1008800070380240A369022B39D8A369002B00F00D
:10089000A880564A926802F00C02082A00F0A48050
:1008A000022B40F08880E36913B1B3F5800F2CD19F
:1008B000236A3F2B2FD8636A323BB3F5BF7F30D812
:1008C000A36A022B05D0042B03D0062B01D0082BE2
:1008D0002DD1E36A043B0B2B2FD8454B00221A6025
:1008E000FFF7CEFD0546414B1B6813F0007F2AD071
:1008F000FFF7C6FD401B0228F5D9032072E04FF434
:10090000E6713C4800F02AFABFE740F2D5113948B9
:1009100000F024FACCE74FF4EB71364800F01EFAF1
:10092000C9E740F2D711334800F018FAC8E74FF48E
:10093000EC71304800F012FACBE740F2D9112D48A3
:1009400000F00CFAC9E7E369226A1343616A47F6CB
:10095000C07292FAA2F2B2FA82F201FA02F21343E0
:10096000A26A5208013A4FF4403191FAA1F1B1FA6A
:1009700081F18A401343E16A4FF0706292FAA2F269
:10098000B2FA82F201FA02F21343184A5360184B8A
:1009900001221A60FFF774FD0446144B1B6813F024
:1009A000007F06D1FFF76CFD001B0228F5D903205C
:1009B00018E0002016E00E4B00221A60FFF760FDE1
:1009C00004460A4B1B6813F0007F06D0FFF758FD62
:1009D000001B0228F5D9032004E0002002E00120DA
:1009E00000E0002003B030BD0120FBE700380240EA
:1009F00060004742FC1F0008214B9B6803F00C037A
:100A0000042B3AD0082B01D01E4870471C4B586865
:100A100000F03F005B6813F4800F1ED01A4AB2FB4F
:100A2000F0F2174B586847F6C073184093FAA3F3D7
:100A3000B3FA83F3D84000FB02F0114B5B6803F478
:100A400040334FF4403292FAA2F2B2FA82F2D3402B
:100A500001335B00B0FBF3F070470A4AB2FBF0F2DF
:100A6000074B586847F6C073184093FAA3F3B3FADC
:100A700083F3D84000FB02F0DFE70348704700BF74
:100A8000003802400024F40000127A0070B50446D9
:100A90000D460368013B0E2B11D8072D15D88C4B42
:100AA0001B6803F00F03AB4215D2EBB2884A1370F8
:100AB000136803F00F03AB420DD0012070BD40F26C
:100AC0003721844800F04AF9E7E74FF40E71814876
:100AD00000F044F9E3E7236813F0020F18D0A3688D
:100AE0007BB1802B0DD0902B0BD0A02B09D0B02B3D
:100AF00007D0C02B05D0D02B03D0E02B01D0F02B9A
:100B000037D1754A936823F0F003A1680B439360D3
:100B1000236813F0010F73D06368032B2FD8636829
:100B2000012B32D09A1E012A36D96B4A126812F074
:100B3000020F00F0CA8068498A6822F0030213435A
:100B40008B60FFF79DFC06466368012B2BD0022BC0
:100B500038D0032B45D0604B9B6813F00C0F4FD05F
:100B6000FFF78EFC801B41F288339842F3D90320B3
:100B7000A4E740F24F21574800F0F0F8C1E740F2F7
:100B80005621544800F0EAF8C9E7534A126812F4B3
:100B9000003FD0D1012091E74F4A126812F0007F48
:100BA000C9D101208AE74C4B9B6803F00C03042B4E
:100BB00026D0FFF765FC801B41F288339842F2D9BA
:100BC00003207BE7444B9B6803F00C03082B17D0F2
:100BD000FFF756FC801B41F288339842F2D903207C
:100BE0006CE73D4B9B6803F00C030C2B08D0FFF720
:100BF00047FC801B41F288339842F2D903205DE71D
:100C0000334B1B6803F00F03AB4209D9EAB2304BF8
:100C10001A701B6803F00F03AB4201D001204DE7AF
:100C2000236813F0040F14D0E3685BB1B3F5805F61
:100C300008D0B3F5A05F05D0B3F5C05F02D0B3F51F
:100C4000E05F36D1244A936823F4E053E1680B4314
:100C50009360236813F0080F15D023695BB1B3F5D7
:100C6000805F08D0B3F5A05F05D0B3F5C05F02D0B8
:100C7000B3F5E05F23D1184A936823F460432169F8
:100C800043EAC1039360FFF7B7FE134B9B6803F081
:100C9000F003F02292FAA2F2B2FA82F2D3400F4AA3
:100CA000D35CD8400E4B18600F20FFF7B9FB002033
:100CB00004E74FF42D71074800F050F8C2E740F206
:100CC000BB21044800F04AF8D5E70120F6E600BF52
:100CD000003C0240FC1F000800380240EC1F0008E6
:100CE0000C000020014B1868704700BF0C0000206A
:100CF000FEE7000008B5034800F052F80120FFF7B6
:100D0000F7FF00BF2C20000808B503460C4A126804
:100D10005AB10B4A1068033323F003030344094A12
:100D2000934206D8064A136008BD054A0649116079
:100D3000EFE700F0BFFC0C2303604FF0FF30F3E758
:100D40007C00002000FC00201C0100200123036027
:100D5000014B0B60704700BF0400002008B50A4635
:100D60000146024800F004F8FFF7C4FF40200008E5
:100D70000FB400B583B004AB53F8042B019380216A
:100D8000064800F0D1FC002803DD0146034800F0CE
:100D900047F803B05DF804EB04B07047840000200E
:100DA00010B5044600F08CFC0146204600F038F8EF
:100DB0000121024800F034F810BD00BF04210008F2
:100DC0002DE9F04385B004460F4643560BB10E465D
:100DD0001EE0042528462146ABBE0446384605B031
:100DE000BDE8F08314F9011B04AA1A4402F8101C90
:100DF0000133AB42F6D304AA1344002203F8102CAB
:100E00004FF00408E94640464946ABBE8046761B93
:100E1000002EE3D03546102E28BF10250023E8E72A
:100E200008B5FFF7CDFF08BD08B500F093F8024AFA
:100E3000024B9A6008BD00BF0000000800ED00E012
:100E4000F8B504460D4617461E462748FFF790FFA3
:100E500021682648FFF78CFF61682548FFF788FF67
:100E6000A1682448FFF784FFE1682348FFF780FF6B
:100E700021692248FFF77CFF61692148FFF778FF6D
:100E8000A1692048FFF774FFE1691F48FFF770FF71
:100E90001E48FFF76DFF29461D48FFF769FF1D4CEF
:100EA000E16A1D48FFF764FF216B1C48FFF760FFF4
:100EB000E16B1B48FFF75CFF15F0800F0AD115F4BA
:100EC000004F0CD11748FFF753FF06991648FFF75C
:100ED0004FFFF8BD39461548FFF74AFFEFE73146A7
:100EE0001348FFF745FFEDE76C2000087C20000861
:100EF0008C2000089C200008AC200008BC200008C2
:100F0000CC200008DC200008EC200008FC200008B1
:100F10000821000800ED00E0182100082821000841
:100F200038210008682100087021000848210008C5
:100F30005821000883691A888A4201D0002070472E
:100F40000268033A012A03D8023383610120704703
:100F5000002070470C4B1A6842F001021A60002111
:100F600099601A6822F0847222F480321A60074A6B
:100F70005A601A6822F480221A60D960044B4FF03C
:100F800000629A60704700BF0038024010300024B1
:100F900000ED00E0224B9B6803F00C03042B14D0FF
:100FA000082B16D01BB11F4B1F4A1A6002E01D4BC5
:100FB0001D4A1A601A4B9B68C3F303131B4AD15C8A
:100FC000184A1368CB4013607047164B184A1A60D2
:100FD000F0E7134B5A685B6803F03F0312F4800F8D
:100FE00013D0134AB2FBF3F20D4B5B68C3F38813C3
:100FF00003FB02F30A4A5268C2F301420132520073
:10100000B3FBF2F3074A1360D4E7074AB2FBF3F2EB
:10101000034B5B68C3F3881303FB02F3EAE700BFEB
:10102000003802400C0000200024F400B421000825
:1010300000127A0010B4012812D018B102281DD075
:1010400010BC7047144B1868490003248C4020EAF8
:1010500004001860186802FA01F101431960EFE713
:101060000E4B1868490003248C4020EA04001860E5
:10107000186802FA01F101431960E1E7084B1868AA
:10108000490003248C4020EA04001860186802FA22
:1010900001F101431960D3E700000240000402405F
:1010A0000008024007291DD801280BD010B10228E2
:1010B00010D070471E48036A890002FA01F11943F3
:1010C000016270471B48036A890002FA01F1194363
:1010D000016270471848036A890002FA01F1194356
:1010E0000162704710B401280ED018B1022815D043
:1010F00010BC70470E4C606A01F007039B0002FAB7
:1011000003F101436162F3E70A4C606A01F00703EF
:101110009B0002FA03F101436162E9E70648436A72
:1011200001F00701890002FA01F119434162DFE78A
:1011300000000240000402400008024030B40128D0
:101140001CD018B1022831D030BC70472348446805
:1011500001258D4024EA0504446044688A40224306
:10116000426082684C000321A14022EA01028260B1
:10117000826803FA04F111438160E5E71848446886
:1011800001258D4024EA0504446044688A402243D6
:10119000426084684A000321914024EA0101816091
:1011A000846803FA02F121438160CDE70D48446869
:1011B00001258D4024EA0504446044688A402243A6
:1011C00042608268490003248C4022EA0402826063
:1011D000826803FA01F111438160B5E70000024023
:1011E000000402400008024010B4012810D018B1D9
:1011F000022819D010BC7047114B586901248C404B
:1012000020EA0400586158698A4002435A61F1E7B4
:101210000C4B586901248C4020EA0400586158693D
:101220008A4002435A61E5E7074B586901248C4024
:1012300020EA0400586158698A4002435A61D9E79C
:10124000000002400004024000080240134B1A68EC
:1012500022F480221A601A6842F480321A600F4B1E
:101260001B6813F4003FFAD00C4B9A6842F001025D
:101270009A609A6822F002029A609A6822F010023C
:101280009A609A6822F020029A609A6822F04002DE
:101290009A609A6822F080029A6070470038024093
:1012A00004282BD8DFE800F0030B131B230014489D
:1012B000036B012202FA01F11943016370471048E0
:1012C000436B012202FA01F11943416370470C4854
:1012D000036C012202FA01F11943016470470848C6
:1012E000436C012202FA01F119434164704704483A
:1012F000036D012202FA01F119430165704700BF35
:101300000038024008B5022206210020FFF792FEB5
:10131000022207210020FFF78DFE02220521002076
:10132000FFF788FE052206210020FFF7BBFE0522FD
:1013300007210020FFF7B6FE052211460020FFF727
:10134000B1FE174B1A6842F004021A601A6842F4A0
:1013500080721A601A6842F400721A601A6842F0C9
:1013600001021A601A6842F002021A601A6822F03A
:1013700008021A601A6822F010021A601A6822F035
:1013800020021A601A6822F080021A601A6822F499
:1013900000621A601A6842F040021A6008BD00BF7D
:1013A00000300140054BD860044B9B6813F0800F60
:1013B000FAD1024BD868C0B2704700BF003001407C
:1013C00008B5024B1B68984708BD00BF0401002008
:1013D000024A136823F004031360704710E000E032
:1013E000012806D020B9064A136823F002031360CF
:1013F0007047034A136843F002031360704700BF4D
:1014000010E000E0044B00229A6058601A6842F035
:1014100001021A60704700BF10E000E0024B18683C
:10142000C0F30040704700BF10E000E001280CD975
:1014300010B504460020FFF7D3FF6000FFF7E2FF7E
:10144000FFF7ECFF0028FBD010BD704710B5044635
:101450000020FFF7C5FF4FF4FA6000FB04F0FFF730
:10146000D1FFFFF7DBFF0028FBD010BD08B501223C
:1014700011460020FFF7B8FE3220FFF7D7FF002209
:1014800001211046FFF7B0FE0120FFF7CFFF012238
:1014900011460020FFF7A8FE3220FFF7C7FF002209
:1014A00001211046FFF7A0FE3220FFF7BFFF012207
:1014B00011460020FFF798FE3C20FFF7B7FF08BD5C
:1014C00010B50446002211461046FFF78DFE204657
:1014D000FFF768FF10BD10B5044601220021084641
:1014E000FFF782FE2046FFF75DFF10BD08B5FFF74E
:1014F000BDFF1120FFF7E4FF0A20FFF7A7FF3A2006
:10150000FFF7DEFF0520FFF7E6FF2920FFF7D8FFF2
:1015100008BD70B506462A20FFF7D2FF0020FFF76E
:10152000DAFF0020FFF7D7FF0020FFF7D4FF7F206E
:10153000FFF7D1FF2B20FFF7C3FF0020FFF7CBFF02
:101540000020FFF7C8FF0020FFF7C5FF9F20FFF72F
:10155000C2FF2C20FFF7B4FF00240AE036F8140085
:10156000C5B2000AFFF7B7FF2846FFF7B4FF013402
:10157000A4B2B4F5A04FF1D370BD000070B594B023
:1015800000240194204B1A6C42F080521A641B6CA8
:1015900003F080530193019B02941C4B1A6842F4A0
:1015A00040421A601B6803F440430293029B0123EC
:1015B000089309934FF480030F93082310934FF47B
:1015C000A8731193042612960723139302250E95F0
:1015D00008A8FEF7F3FF0F230393049505944FF437
:1015E000805306930794294603A8FFF74FFAFFF7A5
:1015F00079FB074BA3FB00308009FEF7ABFF3046B9
:10160000FEF7BEFF14B070BD00380240007000400D
:10161000D34D621008B5FEF719FFFFF7AFFFFFF7D4
:10162000B9FC08BD08B5FFF711FEFFF7D1FE002198
:101630000846FFF735FE0C210320FFF731FE01229B
:1016400000210846FFF7F6FC012211460020FFF7B3
:10165000F1FC0123002211461046FFF76FFD012324
:10166000002219461046FFF769FDFFF74BFEFFF712
:101670003DFF0948FFF74DFF0848FFF74AFF0848BC
:10168000FFF747FF0748FFF744FF0748FFF741FF11
:101690000648FFF73EFFECE7C4210008C4C100087C
:1016A000C4610108C4010208C4A10208C4410308BE
:1016B00070470000014B1868704700BF1000002001
:1016C000034613F8012B002AFBD1181A0138704782
:1016D00030B5141E05469BB0184605DA8B232B60E7
:1016E0004FF0FF301BB030BD4FF40273ADF80C303B
:1016F00014BF04F1FF332346029305934FF6FF73A3
:1017000000910491ADF80E3002461E9B69462846B2
:1017100000F072F8431CBCBF8B232B60002CE1D07F
:10172000009B00221A70DDE707B5009313460A46B6
:10173000014603480068FFF7CBFF03B05DF804FBE8
:10174000100000202DE9F0478E689E4282460C462C
:101750009046994637D88A8912F4906F31D025681F
:1017600009696F1A6569022305EB450595FBF3F5D9
:1017700009F101033B449D4238BF1D46530530D556
:10178000294600F07FFB064650B90C23CAF800300A
:10179000A38943F04003A3814FF0FF30BDE8F087F9
:1017A0003A46216900F0FCFAA38923F4906343F0E0
:1017B0008003A381266165613E44ED1B2660A56020
:1017C0004E464E4500D94E4632464146206800F00E
:1017D000F2FAA3689B1BA36023681E4426600020C6
:1017E000DCE72A4600F0A8FB06460028E2D1216982
:1017F000504600F0F9FAC8E72DE9F04F9DB0804659
:1018000003938B891D060C4616460FD50B696BB9E1
:10181000402100F037FB2060206128B90C23C8F874
:1018200000304FF0FF30C7E040236361002309938D
:1018300020238DF8293030238DF82A304FF0010B0A
:1018400037463D4615F8013B0BB1252B3ED1B7EB92
:10185000060A0BD05346324621464046FFF772FF38
:10186000013000F0A480099B534409933B78002B7E
:1018700000F09D8000234FF0FF32CDE90523049353
:1018800007938DF853301A932F46052217F8011B42
:101890004F4800F035FA049BD0B9D90644BF202246
:1018A0008DF853201A0744BF2B228DF853202A7835
:1018B0002A2A15D0079A2F4600200A25394611F802
:1018C000013B303B092B4DD9B8B10FE02F46B8E7AB
:1018D0003F4A801A0BFA00F0184304903D46D3E7C4
:1018E000039A111D12680391002A01DB079204E09C
:1018F000524243F00203079204933B782E2B0CD103
:101900007B782A2B33D1039B1A1D1B680392002B73
:10191000B8BF4FF0FF33023705932E4D39780322BD
:10192000284600F0EDF938B14023401B03FA00F0DF
:10193000049B034301370493397827488DF8281016
:1019400006227E1C00F0DCF9002838D0234B13BBA4
:10195000039B073323F0070308330393099B4B448E
:1019600009936DE705FB023201200F46A6E700232D
:101970000137059319460A25384610F8012B303AED
:10198000092A03D9002BC8D00591C6E705FB012120
:1019900001230746F0E703AB00932246104B04A94E
:1019A0004046AFF30080B0F1FF3F8146D6D1A38916
:1019B0005B063FF536AF09981DB0BDE8F08F03AB6D
:1019C00000932246064B04A9404600F081F8EAE75E
:1019D000C4E10308CAE10308CEE1030800000000E7
:1019E000451700082DE9F04791461F468A680B69A4
:1019F000DDF820809342B8BF1346C9F8003091F853
:101A0000432006460C4612B10133C9F80030236862
:101A1000990642BFD9F800300233C9F80030256872
:101A200015F0060507D104F1190AE368D9F800207A
:101A30009B1AAB4228DC94F843302268003318BF6D
:101A4000012392062DD404F1430239463046C047A3
:101A5000013020D02368E568D9F8002003F00603A0
:101A6000042B08BFAD1AA36822690CBF25EAE575EF
:101A700000259342C4BF9B1AED184FF000091A3499
:101A80004D451AD1002008E0012352463946304620
:101A9000C047013003D14FF0FF30BDE8F08701357A
:101AA000C3E7E1185A1C302081F84300224494F81F
:101AB000451082F843100233C5E701232246394618
:101AC0003046C0470130E6D009F10109D8E70000EF
:101AD0002DE9F04301F1430C0C46097E85B06E29D7
:101AE0001746064698460C9A00F0B38022D8632920
:101AF00036D00AD8002900F0B980582900F0838038
:101B000004F1420584F8421032E0642901D06929C9
:101B1000F6D120681368050603F104012AD51B6875
:101B20001160002B03DA2D225B4284F843206F48BA
:101B30000A2239E0732900F09D8008D86F2920D04F
:101B40007029DDD1236843F02003236003E0752969
:101B500017D07829D4D1782384F84530644855E0EB
:101B60001368191D1B68116004F1420584F84230A6
:101B700001238CE01B68116010F0400F18BF1BB2EE
:101B8000CFE713682568181D1060280601D51B686B
:101B900002E06806FBD51B8854486F2914BF0A224F
:101BA0000822002184F843106568A560002DC0F26A
:101BB0009580216821F004012160002B3DD1002D8A
:101BC00040F08E806546082A0BD12368DB0708D5D4
:101BD000236962689A42DEBF302305F8013C05F1B3
:101BE000FF35ACEB05032361CDF800803B4603AA2B
:101BF00021463046FFF7F6FE01304DD14FF0FF3061
:101C000005B0BDE8F083394884F8451013682168B1
:101C10001D1D1B6815600A060BD5CA0744BF41F09D
:101C2000200121601BB9226822F0200222601022CC
:101C3000B7E74D0648BF9BB2EFE76546B3FBF2F14D
:101C400002FB1133C35C05F8013D0B460029F5D1B9
:101C5000B9E7136825686169181D106028061B68BC
:101C600001D5196002E06A06FBD5198000232361C3
:101C70006546B9E71368191D11601D686268002187
:101C8000284600F03DF808B1401B6060636823619E
:101C9000002384F84330A7E723692A4639463046B3
:101CA000C0470130AAD023689B0713D4E068039B88
:101CB0009842B8BF1846A3E701234A463946304642
:101CC000C04701309AD00135E368039A9B1AAB42B2
:101CD000F2DCEBE7002504F11909F5E7002BACD1A4
:101CE000037884F8423004F142056CE7D5E103083B
:101CF000E6E1030800000000000000000000000012
:101D000001F0FF01102A2BDB10F0070F08D010F8AC
:101D1000013B013A8B422DD010F0070F42B3F6D1B0
:101D2000F0B441EA012141EA014122F007047FF0C9
:101D300000070023F0E80256083C85EA010586EA20
:101D4000010685FA47F5A3FA87F586FA47F6A5FA5C
:101D500087F68EB9EED1F0BC01F0FF0102F0070268
:101D600032B110F8013B013A83EA010313B1F8D113
:101D70000020704701387047002D06BF35460338F4
:101D8000073815F0010F07D1013015F4807F02BF2D
:101D9000013015F4C03F0130F0BC0138704700BF7E
:101DA00010B5431E0A44914200D110BD11F8014BF9
:101DB00003F8014FF7E7884210B501EB020307D89B
:101DC000421E99420AD011F8014B02F8014FF8E780
:101DD0008342F5D98118D21AD34200D110BD13F82D
:101DE000014D01F8014DF7E738B50546002945D00A
:101DF00051F8043C0C1F002BB8BFE41800F0D2F8D7
:101E00001F4A1368104633B9636014602846BDE862
:101E1000384000F0C8B8A3420CD921686218934238
:101E200004BF1A685B68636004BF521822600460D4
:101E3000ECE713465A680AB1A242FAD91968581851
:101E4000A0420BD120680144581882421960DDD1AC
:101E5000106852685A6001441960D7E702D90C2310
:101E60002B60D3E7206821188A4204BF11685268AA
:101E7000626004BF091821605C60C7E738BD00BF1D
:101E80000801002070B5CD1C25F0030508350C2D88
:101E900038BF0C25002D064601DBA94203D90C23CF
:101EA0003360002070BD00F07DF8214A146821469F
:101EB00091B9204C23681BB9304600F063F82060CC
:101EC0002946304600F05EF8431C24D10C233360D1
:101ED000304600F068F8E4E70B685B1B18D40B2B66
:101EE0000FD90B60CD50CC18304600F05CF804F1EF
:101EF0000B00231D20F00700C31AD3D05A42E25032
:101F0000D0E78C424B6816BF636013600C46EBE76A
:101F10000C464968CCE7C41C24F00304A04205D059
:101F2000211A304600F02EF80130CFD02560DBE7D3
:101F3000080100200C010020F8B5074614460E46A3
:101F400021B91146BDE8F840FFF79CBF22B9FFF761
:101F50004BFF25462846F8BD00F026F8A0420FD2D8
:101F600021463846FFF78EFF05460028F2D031465D
:101F70002246FFF715FF31463846FFF735FFE9E700
:101F80003546E7E738B5064C00230546084623608A
:101F9000FEF7BAFE431C02D1236803B12B6038BDA3
:101FA000140100207047704751F8043C181F002BA3
:101FB000BCBF0B58C01870472E2E2F7379737465F1
:101FC0006D2F7372632F73746D333266342D6861B5
:101FD0006C2F73746D3332663478785F68616C5F30
:101FE000636F727465782E630000000000000000CB
:101FF0000102030401020304060708092E2E2F73B1
:10200000797374656D2F7372632F73746D333266D9
:10201000342D68616C2F73746D3332663478785F59
:1020200068616C5F7263632E6300000061626F72AF
:102030007428292C2065786974696E672E2E2E000D
:102040006173736572745F706172616D28292066B7
:1020500061696C65643A2066696C6520222573228B
:102060002C206C696E652025640A0000537461633E
:102070006B206672616D653A0A00000020523020C4
:102080003D2020253038580A000000002052312021
:102090003D2020253038580A000000002052322010
:1020A0003D2020253038580A0000000020523320FF
:1020B0003D2020253038580A0000000020523132DF
:1020C000203D20253038580A00000000204C5220C6
:1020D0003D2020253038580A0000000020504320C1
:1020E0003D2020253038580A00000000205053526F
:1020F000203D20253038580A000000004653522F5A
:102100004641523A0A0000002043465352203D20E7
:1021100020253038580A00002048465352203D20E0
:1021200020253038580A00002044465352203D20D4
:1021300020253038580A00002041465352203D20C7
:1021400020253038580A0000204D4D464152203D90
:1021500020253038580A00002042464152203D20B8
:1021600020253038580A00004D6973630A000000CA
:10217000204C522F4558435F52455455524E3D20F6
:10218000253038580A0000005B486172644661756A
:102190006C745D0A000000005B4275734661756CEB
:1021A000745D0A005B55736167654661756C745DAB
:1021B0000A0000000000000000000000010203040B
:1021C0000607080900006110200860104010200870
:1021D000601020084008401040104110411040108D
:1021E0004010401041104110411041104110411069
:1021F0004110411041104110401041084108610850
:1022000061086108410841086108610861086110BE
:102210006110611041106110611081106010601038
:102220008118811860108118A118A1186010801001
:1022300061104108621041084108620861084108C4
:1022400061084108611041104008401040104010E2
:1022500040104010411041104110411041104110F8
:102260004110611040106110410861086208820845
:1022700082086208620862086108610862086208F0
:102280006208620861106110400820084010401088
:102290004110401041104110410841086108610897
:1022A0006208620862104108821061086108A21089
:1022B000A210A210C21081086108400861104008F5
:1022C000611000086539AA62CA62EB62CA62AA623A
:1022D000EB62EA62CA62CA62CA62CA62CB62EB623B
:1022E000EB6A0B6B2C6B2C6B2C6B2C6B0C6B0C6BD9
:1022F0000C6B2C6B0C6B0C6B2C6B2C6B4C6B4D6B45
:102300004D6B4D6B4D6B4D6B6D6B6D6B6D6B6D7385
:102310006E738D73CF83CF83EF830F8C5094919C1A
:10232000B19CB19C33ADF2A4D2A4D29CB19CB19C1F
:102330007194EF83AE7B6E736E736E6B4D6B6D6BD2
:102340006D6B6D6B4C6B4C6B2C6B2C6B2C6B2C6B13
:102350000C6B0C6B0C6B0C6B0C6B0C6B2C6B2C6B85
:102360000C6B0C6B4C6B4C6B4D6B6D6B8E6BAE7367
:10237000AF738E73AF73CF7BCF7BCF7BCF7BCF7BA6
:10238000AF73AE738D738D736D732C6B2C6B2C6B65
:102390000C6B0C6B0B6B0B6B2C6B4D6B6E73AE7312
:1023A000CF7BCF7B8E736D6BAE73AF731084D39482
:1023B00075ADD6B554A5918CCE7B6D6B4C6B0C6B0B
:1023C0000B6B4852C220895AAA5A895A895A895A8B
:1023D000A95A895ACA62AA62AA62AA62AA62CA628F
:1023E000CB62EB62CB62CB62CB62CB62CB62CB6265
:1023F000CB62CB62EB62EB620B6B2C6B2C6B2C6BAE
:102400004C6B4C6B2C632D6B4D6B4D6B4D6B4D6B57
:102410006D736D738E7B8E7BAE7BEE832F8C5094B1
:102420005094509450947094919C91947094508CCA
:10243000EF838E7B8E734D732D6B2D6B2D632C6311
:102440004C6B2C6B0B630B63EB62EB62EB62CB624E
:10245000CB62CB62EB62EB62EB62EB62EB62EB6254
:10246000EB62EB62EB620B630C632D634D6B6E6B87
:102470008E6B6E6B6E6B8E738E738E738E736E6BD4
:102480004D6B4D634C6B2C6B0C6BEB62CB62CB6278
:10249000CB62CB62EB6AEB62EB620C632C6B4D6B35
:1024A0004D6B4D6B6E734D6B6E6B6D6B8E7351849C
:1024B000149D95AD75AD718CAE734C6B0B63EB6277
:1024C000EB62E741E328CA62A95A695A895AA95AB4
:1024D000895A895A895A895A8A5AAA5AAA5AAA5A80
:1024E000AA5AAA5AEB6AEB6AEB6AEB6AEB6AEB6AE6
:1024F000EB6AEB6ACB62EB62EB620B632C6B2C6BCF
:102500002C6B4C6B4D6B6D6B6D736E738E738E732A
:102510008E73AE7BAE7BCE7B0F8C308C508C2F9429
:102520002F8C2F8C5094919CD1A4B19C508C0F84F3
:10253000EE83AE7B8E734D734D6B4D6B2D6B2D6BA0
:102540004D6B2C630C630B6BEB62EB62EB62EB622B
:10255000EB62EB62EB62EB62EB62EB62EB62EB6213
:10256000EB62EB620B630B630C632D634D6B8E6B45
:102570008E6B6E6B6D6B6D6B6D6B6D6B4D6B4D6BB9
:102580004D6B4D634C6B2C6B0B63EB62CB62EB6260
:10259000EB6AEB6AEB62CB62EB62EB620C632C6B77
:1025A0004C6B4D6B2D6B2C634D6B6D6BAE73918CC7
:1025B00096AD58C6D6B5718C8E734C6B0B63EB62BF
:1025C000EB62E7410329AA62695A4852AA5AAA62F1
:1025D000895A895AAA62AA62CA62CB62EB62EB6A22
:1025E000EB6AEB6AEB6AEB6AEB6AEB6AEB6AEB6A43
:1025F000EB6AEB6AEB62EB62EB62EB620B632C6BF8
:102600002C6B2C6B2D632D6B4D6B4D6B4D6B4D6B94
:102610006D736D736D738E7BCF830F8C2F8C4F9486
:102620004F944F94919C70944F942F8C2F8C2F8C9F
:10263000EE838D738E734D734D6B2D6B2D6B2D6BE8
:102640004D6B2C630C6B0C6BEB62EB62EB62EB6221
:10265000EB6AEB6AEB62EB62EB62EB62EB62EB6202
:10266000EB62EB620B632C6B2C6B4D6B6E6B8E6BAA
:102670006E6B6E6B4D6B4D6B4D6B4D6B4D6B4D6B58
:102680004D6B4D6B4D734D6B2C6BEB62EB62EB6ADC
:10269000EB6AEB6AEB62EB62EB62EB620B6B0C6B6F
:1026A0002C6B4C6B2D6B2D6B2C634D6B8E73718C67
:1026B000B6B579CE79CE918C6D6B2C6B0B63EB62DA
:1026C000EB62C741E328AA62895A695AAA62895A09
:1026D000895AAA62AA62AA62AA62AA62CA62CB6282
:1026E000CB62EB62EB62EB62EB62EB62EB62EB62A2
:1026F000EB62EB62EB62EB62EB62EB620B632C6B07
:102700002C6B2C6B4D6B4D6B6D6B6D6B6D736D73BB
:102710008E738E73AE7B8D7BAD7BEE832F8C50944E
:1027200070944F9470942F8C0E840E8C2F8C508C40
:102730002F8CAE7B8E7B6E732D6B0D6B0C632C63BD
:102740002D6B2C630C6B0C6BEB62EB62EB62EB6240
:10275000EB62EB62EB6AEB6AEB6AEB62EB6AEB6AE9
:102760000B6B0B6B0B630C632C634D6B6E6B8E6B87
:102770006E6B4D6B2D632D6B4D6B4D6B4D6B4D6BC0
:102780004D6B2D632C6B2C6B0C63EB62CB62EB629D
:10279000EB62CB62EB6AEB6AEB6AEB62CB62CB6219
:1027A000CB62EB62EB62EC620C634D6BAE73718CCF
:1027B00096B538C6D6BD30846D6B4C6B0B63EB623F
:1027C000EB6AE749E328AA62AA62895A8A62895AAF
:1027D0008A62AA62CA62CA62CB6ACB6ACB6AEB6AB5
:1027E000EB6AEB6AEB6AEB6AEB6AEB6AEB6AEB6A41
:1027F000EB6AEB6AEB62EB62EB620B6B0B630C6BED
:102800002C6B2C6B0C632D632D6B4D6B4D6B4D6BDB
:102810004D736D73AE7B8E7BAD7BCE830F8C2F940F
:102820002F8C2F8C70947094919C919C909C909480
:10283000308CCE7B8E7B6E734D6B2D6B0C6B4D6B2A
:102840004D6B2C6B2C6B2C6B0C6BEB6AEB6AEB6A95
:10285000EB6AEB6AEB62EB62CB62EB62EB62EB6A18
:102860000B6B0C6B0B630C6B2C634D6B6E6B8F7374
:102870008E736E6B6D6B6D6B6D6B6D736D6B4D6B86
:102880004D6B4D6B2D6B2C6B0C6BEB62EB62EB6A43
:10289000EB6ACB6ACA62CA62CA6ACA62CA62CB629D
:1028A000CB62EB6ACB62EB620C634D6B8E73EF7B9A
:1028B000F39C54A534A51084AE734D6BEB62CA62D1
:1028C000EB62E749E328AA62AA62695A895AAA62B6
:1028D000CA62AA62895A8962AA62CB6AEB6AEB6A07
:1028E000EB6ACB6AEB6AEB6AEB6AEB6AEB6AEB6A60
:1028F000EB6AEB620B6B0C6B0C6B0C6B2C6B0C6B4D
:102900000C6B0C632D6B2D6B4D6B4D6B4D6B6D73A9
:102910006D736D736D738D7BCE830F8C2F8C4F9485
:102920004F944F9470947094909CB19C909C709430
:10293000308CCE7B6D734D734D6B4D6B2D6B4D6B32
:102940004D6B2C6B0C6B0C6BEB62EB62EB62CB6236
:10295000EB6AEB6AEB6AEB6AEB6AEB6AEB6A0B6BAE
:102960000C6B0C6B0B630C6B2C634D6B6E6B8E7373
:102970008E6B4D6B6D6B4D6B2D6B2C6B2C6B2C63C1
:102980002D632D632D6B2D6B0C6BEB62CB62CB62D9
:10299000CB62CA62AA62AA62AA62AA62AA62AA6296
:1029A000AA62AA62EB62EB62EB624C6B6D73EF7B27
:1029B000D39C34A5F39C10848D730B63CA5ACB62ED
:1029C000EB62C7410329AA62895AAA62895AAA629C
:1029D0008A628A62CB6ACB6ACB6ACB6AEB6AEB6AA1
:1029E000EB6AEB6AEB6AEB6ACB6ACB6AEB62EB6A87
:1029F000EB6AEB6ACB62EB62EB620B6B2C6B2C6BC2
:102A00002C6B4D6B4D6B4D6B2D6B2C6B2D6B4D6B88
:102A10006D738E738E7BAE7BEE83EF8B2F8C4F941A
:102A20004F942F942F8C9094D19CD1A4B19C7094EE
:102A3000308CAE7B8E7B6E734D6B2D6B4D6B4D6B07
:102A40004D6B2C6B4D730C6BEB62EB62EB6AEB62C4
:102A5000EB62EB6AEB6AEB6AEB6AEB6AEB6AEB6AD6
:102A6000EB6AEB6A0B632C6B2D6B4D6BAF73AF7323
:102A70008E734D6B4D6B4D6B4D6B4C6B2C6B2C6398
:102A80002D6B4D6B2D6B2D6B0C6BEB62CB62CB62A8
:102A9000EB62CA6AAA62AA62A962A962A962AA6270
:102AA000AA62AA62CB62EB62EB622C6B4D6BAE73D7
:102AB000718C14A514A5AE734C6B0C630B63EB62A5
:102AC000AA5A074A0329AA62895AAA628962AA6293
:102AD000AA62AA62CB6ACB6ACB6ACB6AEB6AEB6A60
:102AE000EB6AEB6AEB6AEB6ACB6AEB62EB62EB6276
:102AF000EB6AEB6AEB62EB620B630C6B2C6B4D6B5E
:102B00004D734D736E736E736E736E736E738E73DF
:102B10008E7BAE7B8E7BEF83308C50944F944F94A2
:102B20004F944F947094909C90949094709450947F
:102B3000508CCE7B8E736E734D734D6B4D6B6E737D
:102B40008E738E736E734D730C6B0C6BEB6AEB6252
:102B5000EB6AEB6AEB62EB62EB62EB6AEB6AEB6AE5
:102B6000EB6AEB6A0C632C6B4D6B4D6BAF73AF7301
:102B70008E734D6B4D6B4D6B4D6B4D6B2D6B2D6B8C
:102B80002D6B4D6B4D734D730C6BEB6ACB62CB624F
:102B9000CA62AA62AA62A96289628962896289623A
:102BA000A962A962CB62EB62EB622C6B6D73AE73B0
:102BB000718CD39C518C6D6B2C6BEB62EB62EB6A6E
:102BC000AA62E741E328AA62895A8A62895AAA62FC
:102BD000AA62AA62CB6ACB6ACB6ACB6AEB6AEB6A5F
:102BE000EB6AEB6AEB6AEB6AEB6AEB6AEB6AEB6245
:102BF000EB62EB620B6B0C6B0C6B2C6B2C6B4D6BF1
:102C00004D734D736E736E736E738E738E738E7B96
:102C10008E7BAE7B8D7BEE83309450944F942F94BB
:102C20002F944F942F8C4F944F9470947094509491
:102C30002F8CCE7B8E7B8E736E734E734D736E7343
:102C4000AE7BAE7B8E736D732C6B0C6BEB62CB62C9
:102C5000EB62EB6AEB62EB62EB6AEB6AEB6AEB6AE4
:102C6000EB6AEB6A0C632C6B2D6B4D6B8F73AF7340
:102C70008E6B4D6B4D6B4D6B4C6B2C6B4C6B4D6B76
:102C80002D6B2D6B4D732D730C6BEB62CB62CB6296
:102C9000CA62AA62AA62A962896289628962896239
:102CA0008962A962CA62CB62CB622C6B6D73AE7B08
:102CB000318C929410848E734D6BEB62CB62EB6A15
:102CC000EB62E7490329AA62895A8A62695AAA62B1
:102CD000AA62AA62CB6ACB6ACB6AEB6AEB6AEB6A3E
:102CE000EB6AEB6AEB6AEB6AEB6AEB6AEB6AEB6244
:102CF000EB620B630C6B0C6B2C6B2C6B2D6B4D6BAD
:102D00004D6B4D6B4D6B4D6B6E738E738E738E7BF7
:102D10008E7B8E7B8D7BCE830F8C2F944F944F9424
:102D20004F944F942F8C4F946F94909C9094509408
:102D3000508CEF83AE7B8E7B6E734E734D736E73D0
:102D40008E73AE7BAE7B6E734D6B0C6BEB62EB6286
:102D5000EB62EB6AEB6AEB6AEB6AEB6A0B6B0B6B91
:102D60000B6B0B6BEB622C6B2C634D6B8E73AF7329
:102D70006E6B4D6B4D6B2D6B2C6B2C6B2C6B2D6B15
:102D80002D6B2D6B2D730C6BEB6AEB62CB62CA6201
:102D9000AA62A95AAA62AA62A96289628962896240
:102DA0008962A962AA62CA62CB622C6B4D738E7370
:102DB0001084318CCF7B6D732C6BCB5AAA5ACA62AC
:102DC000CA62C7410329CA62AA5AAA62895AAA6278
:102DD000CA62CA62EB6AEB6AEB6AEB6AEB6AEB6A9D
:102DE000EB6AEB6AEB6AEB6AEB6AEB6AEB6AEB6243
:102DF0000B630C630C632C6B2C6B2D6B4D6B4D6B51
:102E00004D6B4D6B4D6B6E736E738E738E7B8E7BC5
:102E1000AE7BAE7BAE7BEF832F8C2F944F94709460
:102E2000709C909CB19C909C909C909C9094709471
:102E30005094EF838E7B6E736E734E736E738E73CE
:102E4000AE7BAE7BAE7B8E734D6B0C6B0C6B0B6BEA
:102E50000B6BEB6AEB62EB62EB6AEB6AEB6AEB6AB9
:102E6000EB6AEB6AEB620C632C634D6BAF73AF7371
:102E70008E6B4D6B2D6B2C6B0C6B2C6B2C6B2D6B35
:102E80002D6B2D6B2C6B0C6BEB62CB62CB62CA6231
:102E9000AA62A95AAA62A962A962895A895A895A58
:102EA00089628962895AAA62AA620B6B4D6B6D7343
:102EB000CF7BCF7B8E732D6B0C63EB62EB62CB62AF
:102EC000CB62C6410329CA62AA5AAA62895ACA6257
:102ED000CA62EB6AEB6AEB6AEB6AEB6AEB6AEB6A73
:102EE000EB6AEB6AEB62EB62EB62EB62EB620B6349
:102EF0000C630C632C6B2C6B4D6B4D6B6E736E7394
:102F00006E736E736E736E738E738E738E7B8E7B29
:102F10008E7B8E7BAE7B0F8C50944F942F942F948E
:102F20004F94709C909C909C909CB09CB09C909472
:102F30005094CE83AE7B8E736E736E738E7BAF7B3D
:102F4000AE7BAE7B8E736D732D6B0C630C630C6B61
:102F50000B6BEB62EB62EB62EB62EB62EB62EB62E0
:102F6000EB62EB62EB622C6B2D6B4D6BAF73CF7B27
:102F70008E734D6B2D6B2C6B2C6B2C6B2C6B2C6B0D
:102F80002C6B2D6B2C6B0B6BEB62CB62CA62CA6233
:102F9000A962A95A895A895A895A895A895A895AD1
:102FA000695A695A695AAA5AAA5ACB620C6B2C6B95
:102FB0006E738E738E732C6BEB62EB62CB62CA62A4
:102FC000EB62C7490329AA62AA5AAA62895ACA624D
:102FD000CA62EB6AEB6AEB6AEB6AEB6AEB6AEB6A72
:102FE000EB6AEB6AEB62EB62EB62EB62EB620B6348
:102FF0000C632C6B2C6B2D6B4D6B6D6B6E736E734A
:103000006E738E738E738E738E738E738E7B8E7BC8
:103010008E7B8E7BAE7BEF8B509450942F942F94AD
:103020002F944F944F947094909CB19C909C70946A
:103030002F8CAE7BAE7B8E7B6E736E736E738E73D6
:103040008E738E738E736E734D6B2C6B0C630B6370
:103050000B6BEB62EB62EB62EB62EB62EB62EB62DF
:10306000EB62EB6AEB622C6B2D6B4E6BAF73CF7B1D
:103070008E6B2D632D632C6B2C6B2C6B0C6B0C6B84
:103080002C6B2C6B0B6BEB6ACB62CA62CA62A95ABF
:10309000A95A895A695A695A695A695A695A695AB8
:1030A000695A695A695A8A628A5AAA62CB62EB6281
:1030B0002C6B2C6B2C6BEB628A5A8A5A895A695A90
:1030C000AA62A6412429CA62AA62CA62AA62CA6224
:1030D000CA62EB6AEB6AEB6AEB6AEB6AEB6AEB6A71
:1030E000EB6AEB6AEB6AEB6AEB6AEB620B6B0C6BFD
:1030F0002C6B2C6B2C6B2D6B4D6B4D6B6E6B6E6B51
:103100006E736E738E738E738E738E7B8E7B8E7BDF
:103110008E7B8E7BCE83EF8330947094909C909CBA
:103120004F942E8C4F94B09CD1A4B19C4F942F8C73
:103130002F8CEF836E7B6E736E734E734D736E7355
:103140008E738E73AE738E738E734D6B2C6B2C6B74
:103150000C6B0B6BEB62EB62EB62EB62EB62EB6AAC
:10316000EB6A0B6BEB622C6B2D6B4E6BAF73CF73FB
:103170006E6B0D632C632C6B2C6B0C6B0C630C63F4
:103180000C630C63EB6ACB62AA62AA62AA5A895AE0
:10319000895AA95A695A695A695A695A695A695AB7
:1031A000695A695A695A8A628A5AAA5AAA5AAA5AFA
:1031B0000C630C63AB5AAA5A8A5A8A5A8A5A895A99
:1031C000AA6285410329EB628A5AAA62AA62CB628B
:1031D000EB62CB62EB62EB62EB62EB62EB62EB62A7
:1031E000EB62EB62EB62EB62EB62EB620C6B0C6B23
:1031F0000C6B2C6B2C6B2D6B4D6B4D6B4D6B6E6B91
:103200006E6B8E736D738E738E73AE7B8E7BAE7BA7
:103210008E7B8E7BAE7B0E8C2F947094909C7094E2
:103220004F8C4F8C2F944F94709C909C50944F9443
:103230002F8CCE838E7B6E736E736E736D738E7BED
:10324000AE7BAE7BEF7BAE736D6B4D6B0C630C6333
:103250000C63EB620B63EB62EB620C6B0C6BEC6A66
:10326000EB6AEC6A2C630C632C634C6B6D738E738E
:103270004D730C6BEC6A0C6B0C6B0C6B0B6B0B6B70
:103280000C6B0B6BEB6ACA6AAA628962895A895A0B
:10329000895A685A895A685A685A685A685A885ABC
:1032A000685A485A4852695A895A4852895ACA62D1
:1032B000CA62695A695A485269526952895A895A86
:1032C000A95AC6410429EB6AAA62CA62CA62EB62C1
:1032D000EB62EB62EB6AEB62EB62EB62EB62EB627E
:1032E000EB62EB620B6B0B6B0C6B0C6B0C6B2C6B5C
:1032F0002C6B2C6B2C6B4D6B4D6B6D6B6E738E73DF
:103300008E738E738E7B8E7BAE7BAE7BAF7BAE7B04
:10331000AE7BAE7BCE830F8C4F947094909C709458
:103320004F8C4F8C2F945094909C919C70945094FF
:103330002F8CCE7BAE7B8E7B8E7B8E7B8E7BCE83EB
:103340000F8C308CCF7B8E736D734D6B2C6B0C633D
:103350000C630C630C63EB62EB620C6B0C6BEB6A43
:10336000EB6AEC6A0B630C632C632C6B4D6B4D7337
:103370000C6BCB62CB62EB620B6B0B6B0B6B0C6B56
:103380000C6B0B6BCB6AAA628A62895A895A895A7A
:10339000695A695A685A685A485A485A685A685A5B
:1033A0004852275228526852685A4852685AA95AB5
:1033B000AA62895A6852485268526852695A895AB0
:1033C000895AA5392429EB6ACA62CB62CB62EB62C7
:1033D000EB62EB62EB62EB62EB62EB62EB62EB6285
:1033E000EB62EB6A0C6B0C6B0C6B0C6B2C6B2C6B31
:1033F0002C6B2C6B2C6B4D6B4D736E738E738E73AD
:103400008E738F738E7B8E7BAE7BAE7B8E738E7353
:103410008E7B8E7BEE832F8C50947094909C709456
:103420004F8C4F8C4F945094709C909C70945094FF
:103430002F8CCE7B8E7B8E738E7B8E7B8E7BEF83F1
:103440007194B29C3084CF7B8E734D6B2C6B0C636C
:103450000C63EB620C63EB62EB62EC6AEC6AEB62AE
:10346000EB62EC6A0C630C630C632C6B2C6B2C6BA7
:103470000C6BCB62EB62EB62EB6AEB6AEB6AEB6ABA
:10348000EB62EB62CB6AAA628962895A695A695A0D
:10349000685A685A4852485A48524852485A485AF4
:1034A000485227524852685A685A485248526852FD
:1034B000685A68524852485268524852685A685A84
:1034C0006852853924310B6BCB62EB6AEB62EB629D
:1034D000EB62EB62EB62EB62EB62EB62EB6A0B6B53
:1034E0000B6B0B6B0C630C630C6B0C6B0C6B0C6B36
:1034F0000C6B2C6B4D6B4D6B6E736E738E738E738A
:103500008E738E738E7B8E7B8E738E738E738E73A3
:103510008E7BAE7BEE832F94509470947094709455
:103520004F8C4F8C50944F94509450944F944F9490
:103530000F8CCE7BAE7B8E7BAE7B8E7BAE7B0F8487
:10354000B29C13ADF3A47194CF7B8D732C6B0C6381
:103550000C630C630C630C630C630C6B0C6B0C6BDB
:10356000EC6A0C6B0C630C630C63EB62EC6A0B6B28
:10357000EB6AEB62EB62EB6AEB6AEB62EB62EB6AC3
:10358000EB62CA62CB6ACA628A62895A695A695A0C
:10359000495A485248524852485248524852485A4A
:1035A00048522752685A485A485A48524852285254
:1035B000285228524852485268524852685A685A0B
:1035C000695A853924310B6BCB62EB6AEB62EB6293
:1035D000EB62EB62EB62EB62EB62EB62EB620B6B5A
:1035E0000B6B0B6B0C6B0C6B0C6B2C6B2C6B2C6BC5
:1035F0002D6B2D6B4D6B6D736E736E736E738E735F
:103600008E738E73AE7BAE7BAE7BAE7BAE7BAE7BC2
:10361000AE7BAE7BCE830F8C4F944F946F9470949F
:103620004F8C4F8C4F944F9450944F944F944F9491
:103630002F8CCE83AE7B8E7B8E7B8E738D73EF83D0
:10364000919C13A575B5B29CEF83AE7B6D734D6BEA
:103650004D6B2C6B0C630C6B0C6B2C6B2C6B2C6BF9
:103660000C6B0C630C630C63EB62CB62CB62EB62A2
:10367000CB62EB62EB62EB62EB62CA62EB6AEB6A13
:10368000EB6AEB62AA62AA628A5A695A695A695A53
:10369000485A485228524852285228524852485AAA
:1036A000485248522852275228524852485A4852A3
:1036B00048524852485A4852685A485248526852EA
:1036C000695AA54124290B6BCB62EB6ACB62EB6292
:1036D000EB62EB62EB6AEB6AEB62EB620B6B0B6B20
:1036E0000B6B0B6B2C6B2C6B2C6B2C6B2C6B4C6B44
:1036F0004D6B4D6B6D736D736E738E738E738E73B6
:103700008E738E7B8E7B8E7BAE7BAE7BAE7BAE7BF9
:10371000AE7BAE7BAD7B0F8C2F942F944F944F9448
:103720002F8C2F8C2F944F9470947094709470946D
:103730002F8CEF838D736D738E738E738D73EF8308
:10374000B19C13A5F3A4308CAE7B6D736D734D7378
:103750004D6B2C6B0C632C6B2C6B2C6B2C6B2C6BB8
:103760002C6B0C630C6B0C6BEC6AEB62EB62CB6248
:10377000CB62CA62EB6AEB6AEB6ACB6AEA6AEA621C
:10378000CA62CA628962895A695A695A695A695A07
:10379000485A4852285248522852285248524852B1
:1037A00048524852275227522752485A685A485A74
:1037B000485A485A4852275248522752485248526B
:1037C000485A853924290B6BCB62EB6ACB62EB62DA
:1037D000EB62EB62EB6AEB62EB620B6B0B6B0B6BFE
:1037E0000B6B0B6B2C6B2C6B2C6B2C6B2C6B4D6B42
:1037F0004D6B4D6B6D736E738E738E7B8E7B8E7B7C
:103800008E7BAF7B8E7B8E7BAE7B8E738E73AE7B1F
:10381000AE7BAE7BCE830F8C4F942F944F944F94FE
:103820002F8C2F8C2F944F94709C909C709450945C
:10383000508CEF83AE7B8E7BAE7BAE7BCE7B308CB1
:10384000B29C13A57194EF838D736D734D6B2C6BCC
:103850002C6B0C6B2C6B2C6B4D6B4C6B2C6B2C6B8F
:103860002C6B0C630C6B0C6BEC6AEB6ACB62EB6A37
:10387000CB6ACA62CA62CA6AEA6AEA6ACA6ACA627F
:10388000CA62AA628A62895A695A695A695A695A25
:10389000685A485A4852485A485A48524852485218
:1038A00048522852275228524852485A485A2852B9
:1038B000275227522752275248522752275227521F
:1038C0004852853924290B6BCB62EB6ACB62EB62E1
:1038D000EB6AEB6AEB62EB62EB620B6B0B6B0B63FD
:1038E0000C6B2C6B2C632C6B4C6B4C6B4D6B4D6BC6
:1038F0004D6B4D6B4D6B6D738E738E7BAF7BAF7B62
:103900008E7B8E7BAE7BAE7BAE7BAE7BAE7BAE7BAF
:10391000AE7BAE7BEE832F9450944F944F94509493
:103920004F8C2F8C2F944F94709470944F944F948D
:103930002F8CEF83AE7B8E7B8E738E7BAE7BEF8383
:103940007094919491940F84AE7B8D734D732C6B16
:103950002C6B2C6B2D6B4D6B4D6B2C6B2C6B2C6B6C
:103960002C630C630C6BEC6ACB62AA62CA62CB6AF2
:10397000EB6AEB6A695AA962CA6ACA6ACA6AEA6ADF
:10398000CA6ACA62CA62AA62A962A9628962895ABB
:10399000695A685A685A695A695A685A4852485264
:1039A00028522752074A075227520752074AE74927
:1039B000074A07520752074A2852275228522852CC
:1039C0004852853904290C6BCB62EB6AEB6AEB62D7
:1039D000EB620B6BEB620B6B0C6B0C6B2C6B2C6B45
:1039E0002C6B2C6B2C632C632C6B4D6B4D6B4D6BCC
:1039F0006D736D738E738E738E7B8E7B8E7B8E7BE1
:103A00008F7BAF7BAE7B8E7BAE7BCF7BCF7BAE7B6A
:103A1000AE7BEE83EE832F944F942F94709470942A
:103A2000508C2F8C2F8C50944F944F944F944F94D4
:103A30002F8CAE7B8E7B6D736E7B8E7BAE7B5094BA
:103A400013A553ADF3A40F8CAE7B8D732C6B0C635D
:103A50002C6B2D6B2C6B2C6B2C6B2C632C632C6BBD
:103A60002C630C63CB62EC6ACB62AA628A62CA6A7C
:103A70008962AA62CA62AA62AA62CA6ACA6ACA6277
:103A8000CA62CA62C962A962A95A895A895A685A1D
:103A9000685A685A6852685248522752274A275231
:103AA0002752274AE749074A074A074A074A074A67
:103AB000074AE749074A074A074AE641074A074AC9
:103AC000074A643104290C6BCB62EB6AEB62EB6250
:103AD000EB620B6B0B6B0C6B2C6B2C6B0C6B2C6BFA
:103AE0002C6B0C6B2C632C632D6B4D6B4D6B4D6BEA
:103AF0004D6B4D6B4D6B6D736E738E738E738E73DA
:103B00008E7B8E7BAE7BAE7BAE7BCF7BCF7BCF7B4A
:103B1000CE7BEE83EE8B4F944F944F945094509401
:103B20002F8C0F842F8C50944F944F944F942F943C
:103B30002F8C8D7BAE7BAE7BAE7B8E7BCE83B29C9F
:103B400074B574ADF3A4308CAE7B8D734D732C6B58
:103B50004D6B2D6B2C6B2C6B2C6B2C632C6B4C6B73
:103B60002C6B2C63EB6AEB6AEB6ACA62895AAA6215
:103B7000895AA962AA62AA62AA62CA62CA62CA62AF
:103B8000AA62CA62A962895A685A68524852275280
:103B9000274A274A074A074A274A074A074A074A3D
:103BA000074A064A074AE749E749E749C649E7415C
:103BB000E749E749C641C641E741C641E749E74110
:103BC000E741242924290C6BCB62EB6AEB62CB62C0
:103BD000CB62EB620B6B0C6B2C6B0C6B0C6B2C6B62
:103BE0002C6B0C632C6B4D6B4D6B4D6B4D6B4D6BA0
:103BF0004D6B4D6B4D6B4D736E738E738E7B8E7BE9
:103C00008E7B8E7BAE7BAE7BCF7BCF7BEF83EF83D8
:103C1000EF83EF830E8C4F944F944F944F945094B6
:103C20000F84EE832F8C4F944F944F944F942F8C8E
:103C30000F8C8D7B6D7B8E7B8E7B8D73AE7B919499
:103C400053AD74AD33AD7194CE7B8D736D736D7365
:103C50004D6B2C6B4D6B4D6B2D6B2C6B2D6B4D6B26
:103C60004C6B2C6BEC6A0C6BEB6ACA62695AAA62E9
:103C7000895AAA62AA62A962A962AA62AA62AA620F
:103C8000AA5AAA5A685A48524752274A074A064A25
:103C9000E641E641C641E641E641E641E749E749FA
:103CA000E641E641E741C741C641A641A639A641E2
:103CB000C641C741C641A641C741C641C741C741E8
:103CC000C741042924290C6BCB62EB6AEB62EB62DF
:103CD000EB620B6BEB620C630C6B0C630C630C63A1
:103CE0002C6B2C6B2C6B2C6B2D6B4D6B4D6B4D6BB8
:103CF0004D6B4D6B6D738E738E7BAE7BAE7B8E7B0F
:103D00008E7BAE7BAE7BCF7BCF7BCF7BEF830F8475
:103D10000F840F84EE8B2F944F944F9450945094B3
:103D20000F8CEF830E8C2F8C2F8C4F944F942F94ED
:103D30002F8CAD7B8E7B8E7BAE7BAE7BAE7B508C37
:103D400053ADD5BD75B59194AE7B6D736D734D6BF1
:103D50002C6B2C6B2D6B2D6B2C6B2C6B2D6B4C6B88
:103D60002C6B2C63EB6A0B6B0C6BCB62695A895A18
:103D7000895AAA62A962895A895A695A695A695242
:103D800048524852274A074AE641E641E641C641C1
:103D9000C641C641C641C641C641C639C639C63903
:103DA000C639C639A639A639A6398639863986393B
:103DB000A639A639A639A639A639A639A639A6390B
:103DC000C741242924290C6BCB62EB6AEB62EB62BE
:103DD000EB6A0C6B0B6B0C6B0C6B0C630C630C6366
:103DE0002C6B2C6B0C630C630C632C6B4D6B6D7329
:103DF0006D734D6B6E738E738E738E738E738E7345
:103E00008E7B8E7B8E7BCF7BEF83CF7BCF7BEF83D5
:103E10000F840F84EE8B2F944F944F9450945094B2
:103E20002F8C0F840E8C2F8C4F944F944F944F9463
:103E30003094CE83AE7B8E7BAE7BAE7BAD7B708CC5
:103E400094B537C6D6BDD29CCE7B8D736D732C6B6B
:103E50000C632D6B0C6B2D6B2D632C632C6B2C6BFF
:103E60002C630B63EB6A0B6B0C6BEB624852695A69
:103E7000685A895A485248522852284A074AE749FC
:103E8000E741C741A639A6398639A639A639A639E8
:103E9000A639A639863986398639853985398539ED
:103EA00085398539453145316531453145314531B2
:103EB00045316531863165318631653186318631EE
:103EC000A639042924290C6BCB62EB6AEB6AEB6AF6
:103ED000EB6A0C6B0C6B2C6B2C6B0C630C632C6BFC
:103EE0002C6B2C6B2C6B2C6B2C6B4D6B6D736E7366
:103EF0006E736D736D736E738E738E738E738E733C
:103F00008E73AE7BAE7BCF7BEF83EF83EF830F842B
:103F10000F840F8C0E8C2F944F944F945094509488
:103F20000F8C0F842F8C4F944F9450944F94509437
:103F30005094CE838D7B8E7B8E7B6D73AD7BB19CDD
:103F4000B5BD16C616C613A50F84AD738D734D6B24
:103F50002C6B4D732D6B2D6B4D6B4D6B4D6B4D6BFA
:103F60002C630C630C6B2C6B4C730B6B48524852DC
:103F700028522852074A074AE749C741C641A6398D
:103F80008639863986398531853186318631653184
:103F900065316531653145316531663165314531B0
:103FA00045314531663166316531453145314531FF
:103FB0004531653145294529653145296531452911
:103FC0006531C31824290C6BCB62EB6AEB62EB62A0
:103FD000EB6A0C6B0C6B2C6B2C6B2C6B2C6B2C6BAB
:103FE0002C6B2C632C6B4D6B4D6B4D6B6D736D732C
:103FF0006D736D736D736E738E738E738E738E733C
:10400000AE7BAE7BAE7BAE7BCF7BEF83EF830F844B
:104010000F84EE830E8C2F8C2F942F9450942F8C22
:104020000F840F842F8C4F94509450944F944F943E
:104030003094CE838E7B8E7BAE7B8D7BCE7BB19C92
:10404000B4B5F5BDD5BD33A52F84AE738E736D7336
:104050004D6B4D734D6B4D6B4D6B4D6B4D6B4D6B98
:104060002C6B0C630C6B2C6B6D730B6B284A074A23
:10407000E749E641C641C641A639863985396639E0
:10408000663165316631653145314531452925292E
:10409000242925290429042104210421E420C42001
:1040A000C420C420A318A318A31882188210821059
:1040B0008210A318A318A318E418E318E420E31847
:1040C0000421821024290C6BCB62EB62EB62EB6261
:1040D000EB620C6B0C6B2C6B2C6B2C6B2C6B2C6BB2
:1040E0002C632C632C6B4D6B4D6B4D6B4D6B2D6BA3
:1040F0004D6B4D6B6D738E738E73AE7BAE7BAE7BF3
:10410000AE7BAE7BAE7B8E738E73AE7BEF83EF8325
:10411000CE83CE7BEE830F8C2F8C2F8C4F942F8CE5
:104120000F840F840E8C4F8C4F944F944F942F8C90
:104130002F8CAE838E7B6D7BAE7BCE7BCE7B508C0B
:1041400033ADB5B574AD13A5508CAD738D738E734F
:104150004D6B4D6B4D6B4D6B2D6B2D6B2D6B2C6B20
:104160002C6B0B63EB620B6B4C730B6B074AE641DA
:10417000A641A53985398539653945314531452906
:104180004529252945292529252925290429E420EA
:10419000C320C318C420A318821062104210210843
:1041A00021082108210821082108210821082108C7
:1041B000210821082108210041084108410841083F
:1041C0008210200024290B6BCA62EB6ACB62EB627F
:1041D000EB62EB620C6B0C630C630C632C6B0C6B73
:1041E0002D6B4D6B2C6B2C6B2C6B2D6B4D6B4D6BB2
:1041F0006D736D738E738E73AE7BAE7BAE7BAE7B59
:10420000AE7BAE7B8E7B8E7B8E7B8E738E738E7B36
:10421000AE7BCE838D7BCE830F8C2F942F942F8CEF
:104220002F8C0F840E844F8C6F944F944F942F9447
:10423000EF8BAE838E7B8E7B8E7B6E7BCF83B29C2F
:1042400095B5B5B5F6C533AD2F8CAE7B8E7B4D7372
:104250004D6B2D6B4D6B2C6B4C6B4D734D734D73C8
:104260002C6BEB62EB5A0B636D7B0C73084A0742B5
:10427000C631A629C6298629462926312531053188
:104280000429E328C318A218821041102110200825
:1042900020082008200820084008610081008100D3
:1042A000810081000118011821102110211021180E
:1042B0002018201040086000600840084008601086
:1042C0006008400003290B6BCA62EB6AEB62EB6A81
:1042D0000C6B0C6B2C6B2C6B2C6B2C6B2C6B2D6B65
:1042E0004D6B4D6B4D6B4D6B4D6B4D6B6D736D73BE
:1042F0008E738E736E738E738E73AE7BAE7B8E7386
:10430000AE7BAE7B8E7B8E7B8E738E738E7BAF7B14
:10431000CF83EF83EE830F8C2F944F942F942F8CA9
:104320000F8CEE830E8C2F8C4F8C2F8C4F944F94D0
:104330000F8CAE83AE83AE83AE7B8E7BEF83B29C5D
:1043400074ADB5B594B512A50F84AE7B8E7B6D733D
:104350004D734D6B4D734D6B4C6B4C6B4C6B2C6BB1
:104360000C6BCB62EB5AEB620C6B0C730852653929
:104370008631A631A62965212521E420C320821893
:1043800041102010410841084108410841084108F6
:104390004110411041104110610861086100600046
:1043A0004008410841084108610861006108611046
:1043B0004110410861086100610861084108410835
:1043C0006008400003290B6BCA62EB6ACB62EB6AA0
:1043D0000B6B0C6B2C6B2C6B2C6B2C6B2C6B2D6B65
:1043E0002D6B4D6B4D6B6D736D736D736D736D7365
:1043F0006D738E736D736E738E73AE7BAE7BAE7B9F
:10440000AE7BAE7BAE7B8E7B8E7B8E73AF7BCF7BAA
:10441000CF83EF83AE83EE8B0F8C0F8C0F8CEE83EC
:10442000CE83CE7B0E842F8C4F8C4F944F944F9421
:10443000EF8B8E7B6D7B6E7B6E7B6D73CE7B9194F1
:1044400054AD95B533ADD19CCE836D734D732C6B4C
:104450002C6B0C6B2C6B0C6B2C6B2C6B2C6B2C6BE4
:104460000C6BEB620B63EB6A2C7B109C6D838649B3
:10447000653945292421C318621021082108200824
:104480002008411020082008400841084108610820
:104490004110211000102008400840004008401042
:1044A000201821186100810081008100610041080D
:1044B000410821084108410041084110211021080C
:1044C0004108410003290B6BCB62EB62CB62EB62CC
:1044D000EB62EB620C6B0C630C6B2C6B2C6B2C6B20
:1044E0002D6B2D6B2D6B4D6B6D736D736D736D73CC
:1044F0006D736D736D736E738E73AE7BAE7BAE7BBF
:10450000AE7B8E738E7B8E7B8E7B8E7BAF7BCF7BE9
:10451000CF83CF83AE83EE8B0F8C2F940F8C0F8CB9
:10452000EF83CE7B0F8C2F8C4F945094509430940B
:10453000EF8BAE7B8E7B8E7BAE7BAE7BEF839194DD
:1045400033A594B574B5F2A40F848D7B6D732D6B78
:104550002D6B2D6BEC62EB620C6B2C6B0C6B2C6B74
:104560002C6B0C63AA62CA620C73B2AC92ACE851B9
:1045700082204110410821082108410841084108D2
:104580004108411041104110410861086100610873
:104590004110211021184110610840082010001816
:1045A00000200028001020084008401021100118A9
:1045B00001200118211801102110211801180110E3
:1045C0002108210024312C6BEB6A0B6BEB62EB6250
:1045D000EB62EB62EB620C630C6B2C6B2D6B2D6B47
:1045E0002D6B2D6B2C6B2D6B4D6B4D736D736E7333
:1045F0006E736E736D736E738E738E7B8E7B8E7B1C
:104600008E7B8E738E7B8E7B8E7BAF7BCF7BCF7BC7
:10461000CF7BAE83CE83EF8B0F942F940F8CEF8BD9
:10462000CE83AE7BEE830F8C0F8C0E8CEE8BEE83E5
:10463000CE83AE838E7B8E7B8E7B8E7B8E7B0F8438
:10464000B19CF29C12A5D19CEE836D734D6B0C6BEB
:104650000C6B0C632C6B0C6B2C6B2C6B2C6B0C6B2A
:104660000C6BEB62EB6AEB6A2C73B1A434B5AA62F3
:1046700041184110210821084108610861084108DA
:10468000400840084008401041086108610061008E
:1046900041102118211861106108400820182138A4
:1046A000214001482148214842404240424822508E
:1046B0004250434822380130012821282128212056
:1046C0002110000824290C6BEB620B6BEB62EB6290
:1046D000EB62EB62EB620C632C6B2C6B2D6B4D6B06
:1046E0004D6B2D6B2D6B2C6B0C6B0C6B2C6B4D6B0E
:1046F0004D734D736D736D736D736E738E738E73B7
:104700008E738E738E7B8E7BAE7BAF7BCF7BCF7BAE
:10471000CF7BAE7B8E7BAE83CE8BCE8BCE83AE83B8
:10472000AE7B8E7B8D7BCE83EE83EF8BEE8BCE8349
:10473000AE836D7BAE838E7B8E7B8E7BAE7B0F8458
:10474000B19C12A512A5D19C0F84AE7B8E734D73C4
:104750004D6B2D6B4D6B2C6B4C6B4D734C6B2C6BF5
:104760002C6BEB62CB6ACB6A2B6B2F84D19C2B63B7
:1047700040082008611041104108410841004008EC
:10478000410861104008401021104108810061007B
:104790004110211801104108600040084130835841
:1047A000A468A46883808378A378A37083706378F7
:1047B00063788470635862506248424041384130A7
:1047C0004120001804290B6BCB62EB62CB62EB62D9
:1047D000EB62EB62EB620C630C6B0C6B2C6B2D6B66
:1047E0004D6B2D6B4D6B4D6B2D6B2C6B2C6B2C6BAC
:1047F0002D6B4D6B6D734D736D736D736E738E7327
:104800008E738E738E7B8E7BAE7BAF7BAF7BAE7BEE
:10481000AE7BAE7B8D7BAE83AE83AE83AE83AE8349
:10482000AE83AF7B8E7BCE830F8C308C308CEF8B46
:10483000AE838E7B6E7B6E736E7B6D738D730F8418
:10484000D19C53AD33ADD19C0F848D7B6D734D6B7B
:104850004D6B2C6B4D6B2C6B4D736D736D734D737A
:104860002C6BEB62CA6AEA6A2B634F7CB084ED73EF
:104870000219200020082008410861086108410849
:104880004008411061084110211041086100610099
:1048900041080118411861088000401041388360C8
:1048A000A4708368837883708270826862684268CB
:1048B0004268426082588250825062484248624058
:1048C0006138202824290C6BCB62EB62CB62EB624F
:1048D0000B6B0C6BEC6A0C6B2C6B0C6B2C6B2D6BE1
:1048E0004D6B4D6B4D6B4D736D736D736D736D7360
:1048F0006E738E736D734D736D736D738E738E7B6C
:104900008E7B8E7B8E7B8E7BAE7BAE7B8E7B8E7327
:104910008E738D7B8E7B8E838E838D7B8D7B8E7B4A
:104920008E7B8E7BAE7BAE83AE83AE83CE83AE8337
:104930008E7B6D7BAE838E7B8E7B8E7BAE7B2F8C56
:10494000F2A494B5B5BD33AD508CAE7B6D734D7391
:104950004D734D6B4D6B2C6B4D736D736D734D7350
:104960002C6BCB62CA6ACA620A636F7CD084B08C3B
:10497000063A400820102110211041084008400844
:1049800040086110400820102110411061006100B2
:104990004108011000086000600040184140636851
:1049A00083686260825082488248824082486248BE
:1049B000624882488240A240A3406240414062482F
:1049C0006240203004290C6BEB6A0B6BEB62EB62EC
:1049D000EB62EB62EB620C632C6B2C6B2C6B2C6B25
:1049E0002C6B2D6B4D734D736D736D736E736D7397
:1049F0006D734D734D6B4D6B2D6B2D6B4D6B4D73FF
:104A00006E738E738E7B8E7B8E7B8E7B8E7B8E7B8E
:104A10008E736D738E7B8D7B8D7B8E83AE838E7B51
:104A20008E7B8E7B8E7B8E7B8E7B8D7B8D7BAE8318
:104A3000AE83AE83AE838E7BAE7BAE7BAE7B91943A
:104A400074B5B5BDF6C553AD2F8C8D7B8E736E736B
:104A50006D734D6B4D6B2C6B4C6B6D734C6B4D6B69
:104A60002C6BEB62EB6ACA624B6B2E84B194B19CE7
:104A7000AD83C33000102118000841084108200808
:104A80006110411060084010211821104108610890
:104A900041102110410881006000201842508368B5
:104AA000626041482020201840184010201000105B
:104AB00000180010001020184120A340A3486248AD
:104AC0006248013804290B6BEB62EB6AEB62EB6224
:104AD000EB62EB620C6B0C6B0C6B0C6B0C6B2C6B52
:104AE0004D6B4D734D734D734D6B4D6B4D6B4D6BEE
:104AF0004D6B4D6B6D736D736D736D736D736D7306
:104B00006D736D736D7B6D7B6E7B8E7BAE7BAE7BD1
:104B1000AE7BAE7B8D7B8D7B8D7B8D7B8E7B8E7B11
:104B20008E7B8E7B8E7BAE83CF83EF8B0F8C108C36
:104B3000EF8BAE83AF838E7B8E7B8D7BAE7B919C28
:104B400074B5D5BDB5BD33AD508CCE83AE7B8E7BF9
:104B50006E734D734D732C6B4C734C734C732D7380
:104B60000C6BCB62CA62EA622B6BEF93309C0C83B6
:104B7000497AE869A340212020106110610860088B
:104B8000400820084000201000180018211041089B
:104B900021102110410860004008402063506360EC
:104BA00041502030011021104108410041004108CE
:104BB00041086108410841082018412862406348C3
:104BC0006348214024290C6BCB62EB62CB62EB6221
:104BD0000B6B0C6B2C6B2C6B2C6B4D6B4D734D73EB
:104BE0004D6B4D6B4D6B4D6B2C6B2C6B4D6B4D6B47
:104BF0004D734D734D736D736D738E738E738E73B2
:104C00008E7B8E7BAE83AE7B8E7B8E7B8E738E7324
:104C10006D736D738E7B8D7B8D838D838E838E8381
:104C20008E7B8E7BAE83AE83CE83CE83CE83CE83CC
:104C3000AE836D7BCF838E7B8E7B8E7BCE83709499
:104C400033AD74B5D5BD53B55094CE838E7B6D73A3
:104C50004D734D734D732C6B2C6B2C6B2C6B2C6B21
:104C60000C6BCB62EB62EB620B73CFA38EA3A879C4
:104C7000A4580661A8694128001020082000600897
:104C8000400861106108411001180118211021101D
:104C9000211041104008600040084130835863589B
:104CA0002138201801182110410841084108410805
:104CB0004108610861084008001000204138835015
:104CC0008358214024292C6BEB620B6BEB62EB6267
:104CD0002C6B2C6B2C6B2C6B2C6B4D6B4D6B2C6BDA
:104CE0000C6B0C632C6B2C6B4D6B4D736D736D7378
:104CF0006D736D736D736D738E738E738E7B8E7B20
:104D00008E7BAE7B8E7B8E7B8E7B8E7BAE7BAE7BFB
:104D1000AE7BCE83CE83AE83CE83AE83AE838E83D3
:104D20008E7B8E7B8D7B8D83AE83CE83EE8B0F8CC3
:104D3000EF8BCF83EF838E7B8E7BAE7BCE83508CCD
:104D4000D2A412AD33ADD19CEF838D7B6E7B6E739D
:104D50006E736E734D732C6B4C734C732C6B2C6B8E
:104D60000C6BCB620B63EB6AEB7A8B822669636018
:104D70006360A46026614230201840106108610819
:104D800040084010410820082010001000100018B2
:104D900000182010401040084010423883506248EC
:104DA000202820080120011841104108410841082D
:104DB00020084008600840100010202861488258F0
:104DC0008258204824292C6B0C6B2C6BEB62EB6215
:104DD0002C6B4C734D732D732C6B2C6B2C6B2C6BC1
:104DE0002C6B4D6B4D734D734D734D734D736D73D4
:104DF0004D734D738E7B8E7B8E7B8E7B8E7B8E7BFD
:104E00008E7B8E7B8E7B8E7BAE7BAF83CF83EF835F
:104E100010840F8CCE83CE83CE8BCE8BAE838E83CD
:104E20008E7B8E7B6D7BAD83EE8B0F8C0F8C0F8C0E
:104E3000EF8BEF83EF838E7B8E7B8E7B6D73AD7BF1
:104E40002F8C7094909C5094AE7B8D7B8E7B6E7B70
:104E50004D732D6B4D732D734D736D734D734D737A
:104E60002C6BEB62EB5AAA62AB72E8696350635831
:104E70002248003042388338212000104110201091
:104E800040104010411041104110411041182120A4
:104E900021202120411841184120423863482238FE
:104EA00020186000001820104008600860084008C2
:104EB00040084008400820100020613882506258A5
:104EC0006158005024292C6B0C6B0C6BEB62EB626D
:104ED0000C6B2C6B4D734D732D736D736D736D7304
:104EE0006D738E736D734D734D734D734D736D7321
:104EF0006E7B8E7B8E7B8E7B8E7B8E7B8E7B8E7B8A
:104F00008E7BAE7BAF83CF83CF83CF83CF83CF83A3
:104F1000EF83EF83CE83EE83EE8BEE8BAE838E83B7
:104F20008E7B8E7B8D7BAE83CE83CE8BCE83AD830B
:104F30008D7B8E7B8E7B6D7B8E7BAE7BAE7B508C38
:104F4000F2A433ADD19C7094CE838E7B8E7B6E7B2E
:104F50004D732D6B4D732D734D736D736D736D7339
:104F60004D730C6BCB620C6B2D83C759002800204E
:104F7000002000280020E4386228001800180018DB
:104F800061188118621861108210811082204228F5
:104F90004230623061286128423042382240012884
:104FA0002008800020104008600860006008400869
:104FB000401040102010201040208240A35862581A
:104FC0004158005024290C6BEB620B6BEB62EB62D7
:104FD0000B6B0C6B0C6B0C6B0C6B4D6B4D734D6B4F
:104FE0002C6B4D6B4D734D734D734D734D736D73D2
:104FF0008E7B8E7B6D736E7B8E7B8E7B8E7BAE7B92
:10500000AE7BAE7B8E83AE83CF83CF83CF83CF83C4
:10501000EF830F8CCE83EE83EE8BEE8BAE838E838D
:105020008E838E838D7B8D7BAD83AD83CD83AE836D
:10503000CE83CE83CF83AE7B8E7B8D7B8D7B0F84A7
:105040009094909CB19C7094CE838D7B8E7B8E7B54
:10505000AF7BAF7B6E734D736D738D7B8D7B8E7B62
:105060006D732C6B0C6B0C6B2C73653960184010D6
:1050700000086010001082288330423042304228FD
:105080004120401821184110610861084118212869
:105090002138413862306230623842402238012083
:1050A0002108810040106108610861004100410849
:1050B00021102110201041188230C448C460A4601F
:1050C0008358014824290C6BCB62EB62EB62EB62E4
:1050D0000C6B0C6B2C6B0C6B0C6B0C6B0C6B0C6300
:1050E0000C6B2C6B2D732D734D734D734D734D7372
:1050F0004D734D736D736E7B8E7B8E7B8E7B8E7B43
:105100008E7B8E7B8E83AE83CF83CF83CF83CF8303
:10511000EF83EF83AE83CE83CE8BCE838D838D7B67
:105120008D7B8E838D7BAD83CE83EE8BEE8BEE837A
:10513000CE83AE7BCE83AE7BAE7B8E7BAE7B2F8C65
:10514000919C909C70944F94CE838E7B8E7B8E7BB3
:105150008E7B8E7BAF7B8E7BAE7BAE7BAE7B8E7B86
:105160008E7B4D732D6B2D6B6D7364294000800019
:1051700080006000400820186230223822386230F7
:1051800021204118011821106000600040102128E2
:105190002138223841386238423822382230012002
:1051A00041088100211041084100610041082108A7
:1051B0002110221001106320C43806512661E560D9
:1051C000A458014803290B6BCA62CA62EB62EB6AFE
:1051D000EB62EB6AEB6AEB6AEB6AEB6AEB62EB623F
:1051E000EB62EB6A0C6B2D6B4D6B4D6B4D6B4D7326
:1051F0004D734D736E7B6E736D736E7B6E734D73FB
:105200004D736E7B8E7B8E7BAE7BAE7BAE7BCF7B1E
:10521000CF83CF838E83AF83AE83AE838E838E8323
:105220008E836E7B8D838D83AE8BCE8BCE8BAE8B40
:105230008D836D7BCE83AD838D7BAD7B8D7B2F8C02
:10524000F2A4D29CB19C919C0F8CCE7BAE7B8E7BCA
:105250008E7B8E7B8E7B8E7B8E7B8E7B8E7B8E7B06
:105260008E7B6E7B2D734D73EC6A04292110011027
:1052700001104110410840086120823062386130DD
:105280006020201080006000600841102018412834
:105290008238424042402240424062404130202811
:1052A00000180010410861006100410842184218CE
:1052B0006210A208C210C330E458E570E5780571A9
:1052C0002569614803290B6BEB6A0B6BEB6ACA62B9
:1052D000EB6AEB6ACB62CB62EB62EB6A0B6B0C6B3B
:1052E0002C6B2C730C6B0C6B2C6B2C6B4D6B6D73D4
:1052F0004D734D734D734D734D736D736D7B6D7B3E
:105300008E7B8E7B8E7B8E7B8E7B8E738E73AE7B45
:10531000AE7BAE838E7B8E836E7B6D7B6D7B6D7B78
:105320008E836D7B6D7B8D838D83AE83CE83CE8BA1
:10533000CE8BCE8BEE8BAD7B8D7BAE83CE8391946B
:1053400054AD33ADD29C919C2F8CCE83AE7BAE7B83
:105350008E7B8E7B8E7B8E7B8E7B8E7B8E7B8E7B05
:105360008E7B8E7B4D7B8E7B2C6B04210008211065
:10537000211021084108411061286238214021385C
:105380004028402020200020002000280028013054
:105390002138013842404240624062404130212879
:1053A0002020202000182118411021080008211079
:1053B000C41845294531044105690679067905690E
:1053C0002561A2502431EB62CA62AA62AA62AA6273
:1053D000EB62EA620B6BEB6AEB6AEB6AEB6A0B6BF4
:1053E0000B6B0B6B4D6B2C6B0C6B0C630C632C6B96
:1053F0004D6B4D734D734D734D734D736D738E7B4C
:105400008E7B8E7BAE7BAE7B8E7BAE7BAE7B8E7BD4
:105410008D7B6D7B8E7B6D7B8E838E838E838E7B6F
:10542000AE838E7B8E83AE83CF8BEF8BEF8BCF8B58
:10543000CE83AE833094CE83AE7BAE7BCE8370942E
:1054400013A5D29CB19C919C2F8CCE83AE7BAE7B5E
:105450008E7B8E7B8E7B8E7B8E7B8E7B8E7B8E7B04
:105460008E7B8E7B4D7B6E7B0B6324192000610845
:1054700061104110000841208238624842502148A2
:10548000203841382250425022502250425042503F
:105490002250214821482148214842486248824000
:1054A00082408240214021388230A328A328E4286A
:1054B00066316639A7512659267147796779467151
:1054C00045696248E220895A68526852AA5AAA621B
:1054D0000B6BCA62CA62AA62CA62CB62EB620B6BD6
:1054E0000B6B0B6BEB620B632C6B2C6B2C6B2C6BB9
:1054F0002C6B2C6B4C734C734C734C736D738E7B99
:10550000AE7B8E7B8E7B8E7B8E7BAE7BCE7BEF836A
:10551000EF830F84CE838D7BCE83AE83AE83AE7B51
:10552000AE7B8E7BAE7BAE83CF83CF83CE83CE83A9
:10553000CE83CF830F8CCE838E7BAE7BCE83519474
:1055400013A5F3A4919C70940F8CCE7BAE7BAE7BA5
:105550008E7B8E7B8E7B8E7B8E7B8E7B8E7B8E7B03
:105560008E7B6E7B2D734D6B0B5B8521600040083D
:105570002010201020204130424002502260426022
:10558000A468457126890689C578A470C578C47851
:10559000A470C470C470836842606360E5708781E2
:1055A000E9910A92E8916679266926592549664962
:1055B000A749864946598769C879A879877166716C
:1055C00046716358E220EA622B6B6C73AD7BCE832D
:1055D000EE83CE7B0F84EE83AE7B8D7B4C732B6B87
:1055E000EA62CA620B63EB62EB62EB620B630B6312
:1055F0002C6B2C6B2C6B4C6B4D736D738D7BAE7B5E
:10560000AE7B8E7BAE83AE83CE83EE83EE83EE8362
:10561000EE83CE83AD7B4C73AE7B8D7B8D7B8D7BA0
:10562000AE7BAE7B8E7BAE7BCE83CE83AE7B8E7B22
:105630008D7B6D7B8E7B8E7B8D7BAE7BAE7B308C52
:10564000D2A4F3A470945094EF83AD7B8E7B8D7BBA
:105650008D7B8E7B8E7B8E7B8E7B8E7B8E7B8E7B03
:105660008E7B6E7B2C734D732C63A531400000083C
:105670000018002821384248425843688478E58859
:105680004791C9A12AB2E9A967990691269146993D
:10569000269947992699269926912799679988A14D
:1056A000689947914AAAC8A1C9A1099AE981297AAA
:1056B000AB7ACC8AE871C871E871C769C771A779FC
:1056C00067812360C6417094919CB19CD2A433AD94
:1056D00033AD54AD33AD33AD13ADF2A4F2A4D29CCF
:1056E000B19CB19C0F84CE7B6D734C6B4C6B2C6B5F
:1056F0000B6B0B632C6B4C6B6D738D7BAE7BAE7B3E
:10570000AE7BCE7BCE83AE83AD7BAD7BCD7B0E847B
:105710007094B19CD19C2F8C919C50942F8CCE7BFB
:10572000AE7B8D736D736D736D738D738E7B8E7B9E
:10573000AE7BAE7B8D7BAE7B8E7B8D7B8D7BCE7B84
:10574000719491947194508CEE838D7B8D7B6D73ED
:105750006D736D734D736D736D736D738E7B8E7B17
:105760008E7B6E7B2D738E7B4D738639001041309E
:10577000C45005698368C470E58006892799279914
:10578000279927A147A12699E590C590C598E59846
:10579000C598A598A598C598C598C590C590069137
:1057A00027996799669166A1C9B16CBAEDB26EA3EB
:1057B000CFA3D0AB0D934A7AE869C769C8716779FE
:1057C00027794360A53990944F9450945094F2A453
:1057D000F2A413AD12A513A513A533AD33AD33ADAC
:1057E00054AD54AD74B554AD54AD54AD34ADF2A414
:1057F0009194308C6D738D73AD7BAE7B8D736C73B8
:10580000AD7B0F840F8C709412A594B5F6C536C687
:1058100037CE37CE74B5B19C54B533AD54B533AD36
:1058200013A5D29CD29C9194308CCE7B8D736D73DA
:105830006D736D738D7BAE7B8D7B8D7B8D7BCE7B16
:105840002F8C508C50942F8CCE838D736D734D7331
:105850004C734D732C6B4D734D736D736E7B8E7BE0
:105860008E7B6E7B4D736D7B2C73C751824026718E
:10587000A891C9A188A1679947912691069906998F
:10588000E6A0C6A0E598E598069906A1E5A0E5A0E2
:10589000C5A0A5A0A598E5A006A10699E59006914A
:1058A0000699269966A167A988B10AB22EB372BC7F
:1058B000F3BCB3BC10AC4E9BCB924A8AA881067154
:1058C0002671A460C539B19C4F947094909C54B5D6
:1058D000F2A413A533AD33AD13A512A512A512A5DD
:1058E00013A533AD13A513A533AD53AD53AD54ADCF
:1058F00074B595B5B5B5B5B5B5B574B513A5F29C88
:1059000054AD17C657CE57D678D677CE57CE57C692
:1059100057CE77CEF5C5F2A453B512AD33AD33AD46
:1059200054AD13A534AD34AD54AD34AD13A5D29CF4
:10593000508C0F848D7B8D7B4C734C6B4C736C73D4
:105940008D738D732F8C0F84AD7B6D736C734C7363
:105950002C6B4C734C734D736D738D738E7BAE7B60
:10596000AE7B8E732D730C730C7B6A7A8771E99909
:10597000A9A948A968B147A14799679926990699A5
:1059800007A1C6A84699269926990599A490C59875
:10599000E5A0E598C598E598E598C598C598E69876
:1059A000E698C59805A147A968A92AA210B417D6F8
:1059B000FBEEDBF635CD11B42DA36B9A0A9AC9899B
:1059C00067716240C641909450947094EE830F8C3E
:1059D00013A512A512A512A513A533AD33AD13A5BA
:1059E00012A512A513A513A533A533AD33AD33AD61
:1059F00033AD33AD33AD74B574B574B595B5F6C587
:105A000037CE37CE37CE37CE16C636C636C636C6B2
:105A100036C657CEF6C5F6C577D6B5BDB5BD53ADBE
:105A200033AD12A533A5F2A4F2A413A533AD13A58B
:105A300054AD33AD33AD13ADB19C919C0F8CAD7BA8
:105A4000CD7B8D732B6B8D732B6BEB62AA5AEB6244
:105A50002B6B4C738D7B8D734C6B2C6B2C6B6D7324
:105A60008D732C6BEB6A4D7B4D830D934A8A2AA272
:105A7000C9A989B168B147A967A167992691069913
:105A8000E6A0C6A8268925890589E5880591E490C0
:105A900025990591E590E590C598C5A0C6A0A5A853
:105AA00085A885A8E69868A988996B9235C53CEFCA
:105AB0005CEF1CEFBBF6B3BC6EA38B9A0A9A0A9AF2
:105AC00009822451A539B19C7094919C064264319D
:105AD000F2A413A512A512A512A512A533AD12A505
